:020000040800F2
:10000000E044002049010008652B0008851B00081A
:10001000852A000865130008495400080000000004
:100020000000000000000000000000001D43000868
:1000300069130008000000009F3B000811450008FC
:100040006301000863010008630100086301000800
:1000500063010008630100086301000863010008F0
:1000600063010008630100086301000863010008E0
:1000700063010008630100086301000863010008D0
:1000800063010008630100086301000863010008C0
:1000900063010008630100086301000863010008B0
:1000A00063010008630100086301000863010008A0
:1000B000630100088D47000821480008630100081B
:1000C0006301000863010008630100086301000880
:1000D00063010008794C0008014D0008254E000816
:1000E0006301000863010008630100086301000860
:1000F0006301000863010008630100086301000850
:10010000630100086301000863010008630100083F
:10011000630100086301000863010008630100082F
:10012000630100086301000863010008630100081F
:10013000DFF810D000F0F4FD0048004785620008A9
:10014000AFF30080E044002006488047064800479F
:10015000FEE7FEE7FEE7FEE7FEE7FEE7FEE7FEE777
:10016000FEE7FEE74545000831010008A0F1410126
:10017000192900D82030704740EA01039B0703D0BB
:1001800009E008C9121F08C0042AFAD203E011F8D6
:10019000013B00F8013B521EF9D27047D2B201E098
:1001A00000F8012B491EFBD270470022F6E710B57C
:1001B00013460A4604461946FFF7F0FF204610BDD5
:1001C000421E12F8013F002BFBD111F8013B02F84F
:1001D000013B002BF9D1704730B505462A460B4646
:1001E00012F8010B13F8014B08B1A042F8D01CB172
:1001F000002802D06D1CF1E7284630BDCAB2401E6F
:1002000010F8011F8A4202D00029F9D1002070475E
:10021000421C10F8011B0029FBD1801A704710B551
:10022000002200E0521C835C8C5CA34201D1002BB5
:10023000F8D1D8B2E1B2401A10BD10B5044600E0C2
:10024000401C0378002BFBD100E0401C521E04D35D
:1002500011F8013B0370002BF7D1002101702046FB
:1002600010BD30B505460020034600E05B1C9342FC
:1002700005D2EC5CC85C201A01D1002CF6D130BD4F
:100280002DE9FF4F087883B09946FF2805D0491C17
:100290002D2804D00024002008E000200BE00124D9
:1002A000F9E700EB800003EB4000491C0B78FF2BC3
:1002B000F7D104B1404200230293147819461D4639
:1002C0002D2C01D02B2C04D1521C2D2C13D000240A
:1002D0000294AA461478FF2C0FD00A25A3FB0578B8
:1002E00001FB05814FF0000C03FB0C11521CE319BC
:1002F0004AEB0101EEE70124EAE7814453EA0100F9
:1003000002D019F5C87F06DA03980021C0E9001170
:1003100007B0BDE8F08F0025AE4E2F46DFF8B8825B
:10032000184600F0BDFCCDE90001B9F1000002DA89
:10033000C9F1000400E004460023A74A1AEB030BAE
:1003400042EB045A12E0E00707D02A46334638460B
:10035000414600F0F9F9074688462A4633461046DA
:10036000194600F0F1F905460E466410002CEAD15A
:10037000DDE90001B9F1000F5A46534606DA00F0F4
:1003800020FC3A46434600F01CFC05E000F0DCF996
:100390003A46434600F0D8F9029A0AB181F000418A
:1003A000039AC2E90001B3E72DE9FF4F1F468DB064
:1003B000D7E901464FF0FF382E2045464FF000099F
:1003C0000B90B9696D1C0E988847396A8246884738
:1003D0000028F6D1BAF1FF3F0AD024F4D064002EF1
:1003E00011DDBAF12B0F08D0BAF12D0F0BD102E0BD
:1003F000404611B08DE744F48064B9696D1C0E98D5
:1004000088478246761E6946600501D52D2000E0AA
:100410002B208DF8000001F1010B0DF1200809E0FF
:10042000B9696D1C0E98884782460F9844F4007491
:10043000761E0560002E02DDBAF1300FF0D00B9968
:100440008A453ED144F0800406E00F99681CA9F16A
:10045000010944F400740860B9696D1C761E0E9899
:10046000884782463028F0D02BE00B998A4505D189
:10047000200603D444F08004761E18E0504605F0B0
:1004800091F908B30DF11301761E44F400748B4505
:1004900008D2AAF130000BF8010B200607D5A9F10C
:1004A000010003E0200602D409F101008146A00505
:1004B00002D50F99681C0860B9696D1C0E988847B1
:1004C0008246002ED1DC53E0002E51DDBAF1650FDB
:1004D00002D0BAF1450F4BD1A00549D5B9696D1CC1
:1004E00024F44074761E0E9888478246002E0CDD58
:1004F0002B2804D0BAF12D0F07D144F48074B969C8
:100500006D1C0E9888478246761EE00501D52D2188
:1005100000E02B2108F8011BCDF82C8021E00DF123
:100520002901761E44F4007488450CD2AAF13000EB
:1005300010F0FF0088F8000002D10B99884509D916
:1005400008F1010806E0E00501D5244801E042F287
:100550000F708146B9696D1C0E98884782460F98C6
:100560000560002E04DD504605F01CF90028D6D1A8
:10057000F9690E988847FF208BF8000088F8000082
:100580000020069007904B466A4608A906A8FFF788
:1005900077FEA00502D46FF001002AE714F0240FC3
:1005A0000AD0E00714D1DDE906123868031D3B606C
:1005B0000068C0E900120BE0DDE9060100F094FBE1
:1005C0000146E00704D13868021D3A600068016006
:1005D00028460EE7000014400000F03FF1D8FFFF6E
:1005E00070B5064604F0B2FF046805460A220021F1
:1005F000304600F051FA2C6070BD2DE9FE4F804668
:1006000081EA0300C00F0C46009021F0004123F066
:100610000045B8EB0200A94105D24046214690466C
:100620001C460B46024623F00040104347D0270DDE
:10063000C7F30A00C3F30A510290401A0190402800
:100640006BDAC3F3130040F4801B0098924620B18C
:100650000023D2EB030A63EB0B0B01985946C0F160
:100660004002504600F079F906460D46504659467C
:10067000019A00F091F910EB08006141002487EA2B
:10068000115284EAE7731A4340D0009A62B3019A88
:10069000012A4FEA075215DC001B61EB02014FF003
:1006A000004202EA0752CDE90042001C41F58011E8
:1006B00032462B4600F037FA03B0BDE8F08F4046D3
:1006C0002146F9E7001B61EB0201001C41F5801394
:1006D00000185B412018A2F5001747EB030140EA20
:1006E000D570B6196D4111E06D084FEA360645EA3E
:1006F000C0754FEA0752001B61EB0201001C41F577
:10070000801149084FEA30000019514132462B460A
:1007100003B0BDE8F04F00F0F7B9009801224000A7
:100720000023D0EB020263EBE073009821464FEA0E
:10073000E074B8EB000061EB0401E9E783F00043EB
:100740005BE781F0004158E72DE9FE4F81EA0304A1
:1007500004F0004421F0004100944FF0000B23F01E
:10076000004350EA01045ED052EA03045BD0C3F3B5
:100770000A54C1F30A552C44A4F2F3340194A0FBAB
:100780000254C1F3130141F48011C3F3130343F482
:10079000801301FB024400FB034E840A970A44EADB
:1007A000815447EA8357A4FB076802958D0A05FB2D
:1007B00007854FEA932C04FB0C542705029D4FEA52
:1007C000065847EA1637B5EB08056EEB070C870E9F
:1007D000920E47EA811742EA8312A7FB0201B6EBA9
:1007E0000B0164EB00042B0D43EA0C335E1844EB61
:1007F0001C50DA465146E7FB0201C5F313044FEAE9
:100800000B3343EA14534FEA0432019C43EA0603D4
:10081000A4F10C040294009CCDE900B400F083F92B
:1008200003B0BDE8F08F00200146F9E770B5C1F3D1
:100830000A5201F000450024C1F3130140F2FF33D6
:1008400041F480119A4201DA002070BD40F2334336
:100850009A42A2F2334203DC524200F08DF800E0EB
:1008600090402C43F1D0404270BD000030B5041ED2
:1008700071F1000404DB4FF00044404264EB0101DD
:10088000141E73F1000405DB1C464FF00043524276
:1008900063EB04038B4208BF824230BD30B5041EB7
:1008A00071F1000404DB4FF00044404264EB0101AD
:1008B000141E73F1000405DB1C464FF00043524246
:1008C00063EB0403994208BF904230BD30B50B463C
:1008D000014600202022012409E021FA02F59D4270
:1008E00005D303FA02F5491B04FA02F52844151E44
:1008F000A2F10102F1DC30BD2DE9F05F05460020D8
:1009000092469B4688460646814640241BE0284680
:1009100041464746224600F02FF853465A46C01A31
:10092000914110D311461846224600F016F82D1AB0
:1009300067EB01084F4622460120002100F00DF828
:1009400017EB00094E41201EA4F10104DFDC4846EC
:1009500031462A464346BDE8F09F202A04DB203A70
:1009600000FA02F1002070479140C2F1200320FA02
:1009700003F3194390407047202A04DB203A21FA00
:1009800002F00021704721FA02F3D040C2F12002A8
:100990009140084319467047202A06DBCB17203ABE
:1009A00041FA02F043EAE07306E041FA02F3D04074
:1009B000C2F120029140084319467047426842B193
:1009C000016811F8013B23B1521EC0E9001218461C
:1009D00070470121C160881E704742685AB1C368E0
:1009E000016843B983688B4205D0491E521CC0E997
:1009F0000012002070474FF0FF3070470FB4002303
:100A000000B589B00CA900910B996FF00042CB6042
:100A10001E4B06931E4B07930423CDE901321D4A5A
:100A2000089202466B460020FFF7BEFC09B05DF855
:100A300014FB70B586B006464FF0FF300091CDE94B
:100A40000101002015460C4604903246694604A870
:100A5000FFF7D4FF02460498211825B108B10846D3
:100A600000E020462860049800280DD0002A02DD0E
:100A70000098884208D0081B0094CDE90104324652
:100A8000694604A8FFF7BAFF06B070BDBD090008AB
:100A9000DB0900084D0D00082DE9F04791460F468F
:100AA00080460446002614F8015B2DB100F04AF997
:100AB0000068405DC007F6D12B2D02D02D2D18D037
:100AC000641E4A463946204600F049F927B1396884
:100AD000A14201D1C7F8008071054FF002040BD587
:100AE0004042002803DD04F031FD0460A007BDE8AA
:100AF000F08746F48066E4E70028F8DA04F026FD83
:100B000004606FF00040F2E710B5141E73F10004AA
:100B100008DA401C41F1000192185B411A4301D1EF
:100B200020F0010010BD2DE9F04D92469B4611B119
:100B3000B1FA81F202E0B0FA80F220329046FFF77B
:100B40000CFF04460F4640EA0A0041EA0B015346F7
:100B50005A46084313D0114653EA010019D0C8F190
:100B600040025046FFF708FF05460E4650465946DC
:100B70004246FFF7F2FE084305D0012004E020467C
:100B80003946BDE8F08D0020054346EAE0762C4367
:100B900037430A986305E40AA0EB08000022FD0A27
:100BA00044EA47540A3002D500200146E9E701052E
:100BB00010196941DDE9084500196941BDE8F04DAA
:100BC000A2E72DE9F04D81EA030404F0004B21F087
:100BD000004514464FF0000A23F0004150EA050298
:100BE00020D054EA01021DD0C5F30A570246C5F3CE
:100BF0001303C1F31300C1F30A5640F4801543F404
:100C00008013A7EB0608101BD64608F2FD3873EBDD
:100C1000050002D308F1010801E092185B41B8F128
:100C2000000F03DA00200146BDE8F08D00204FF4EC
:100C30008011064684460EE0171B73EB050705D3AB
:100C4000121B63EB050306434CEA010C49084FEA0B
:100C5000300092185B4150EA0107EDD152EA0300DF
:100C600012D082EA040083EA0501084305D0101B74
:100C7000AB4106D20122002306E000224FF00043E0
:100C800002E06FF0010253101AEB06004CEB085122
:100C900010EB0A0041EB0B01BDE8F04DFFF734BF4C
:100CA0000EB540F2334202920022CDE900221346F3
:100CB000FFF739FF03B000BDC1F30A52C1F31301BE
:100CC00040F2FF3341F480119A4202DA00200146DB
:100CD000704740F233439A42A2F2334202DC52425E
:100CE000FFF74ABEFFF739BE01F0004330B421F0F0
:100CF000004150EA010206D00A0DA2F56072C1F36C
:100D00001301002A02DC30BC00207047440F44EA83
:100D1000C104C100E01830BC00EBC25000F06EB856
:100D2000064C074D06E0E06840F0010394E8070038
:100D300098471034AC42F6D3FFF7FEF9CC710008A7
:100D4000EC710008004870471071000810B50446A7
:100D5000FFF7F8FF0068005D00F0010010BD2DE90D
:100D6000F05F82460078002715468B460AF10104A1
:100D7000B946302801D09DB113E014F8010B0127CA
:100D8000782803D0582801D045B10AE00DB1102DC4
:100D900007D10027102514F8010B02E0082500E018
:100DA0000A250026B0460EE005FB080005FB06F10B
:100DB000012701EB10461FFA80F8B6F5803F00D3FB
:100DC000B94614F8010B294600F04FF80028EBDA79
:100DD000BBF1000F05D00FB1641E00E05446CBF804
:100DE0000040B9F1000F06D004F0B0FB0221016011
:100DF000C81EBDE8F09F48EA0640FAE70029A8BFF0
:100E00007047401C490008BF20F00100704710B433
:100E1000B0FA80FC00FA0CF050EA010404BF10BCE8
:100E2000704749B1CCF1200421FA04F411FA0CF115
:100E300018BF012121430843A3EB0C01CB1D4FEA4E
:100E400000614FEA102042BF002010BC704700EB49
:100E5000C35010440029A4BF10BC7047401C490077
:100E600008BF20F0010010BC70473A2800D230388B
:100E700020F02002412A01D3A2F13700884201D399
:100E80004FF0FF30704770B58D1810F8014B14F01B
:100E9000030201D110F8012B231106D110F8013BF8
:100EA00003E010F8016B01F8016B521EF9D1ABB1F0
:100EB00010F8012B04F00C048A1A0C2C03D0A2EBBE
:100EC00084129B1C08E010F8014BA2EB0422F8E707
:100ED00012F8014B01F8014B5B1EF9D5A942D4D39E
:100EE000002070BDF8B50027002540E1052F28D26D
:100EF000DFE807F003285280A700701CC6B29EA24C
:100F00000221002001F0D0FF02F07AFD0446ACB9C6
:100F1000012002F052FD044664B99CA20221002087
:100F200001F0C2FF9EA20421002001F0BDFF0026B7
:100F3000012706E0204603F0A9FA02E0204603F06C
:100F4000A5FAF5E0701CC6B29AA20221002001F0B9
:100F5000ABFF93A20421002001F0A6FF02F050FD98
:100F60000446ACB9022002F028FD044664B987A209
:100F70000221002001F098FF89A20421002001F045
:100F800093FF0026022706E0204603F07FFA02E0E6
:100F9000204603F07BFACBE08BA20221002001F077
:100FA00083FF7FA20421002001F07EFF02F08DFD6F
:100FB00004465CB989A20221002001F075FF78A2E5
:100FC0000421002001F070FF03270EE088A2022117
:100FD000002001F069FF72A20421002001F064FFEB
:100FE000204603F053FA002600274FF4FA7005F06C
:100FF0009BF89DE083A20221002001F055FF68A22A
:101000000421002001F050FF4FF4FA7005F08CF835
:1010100002F078FD04465CB97FA20221002001F0B5
:1010200043FF5FA20421002001F03EFF042703E0FC
:101030000027204603F02AFA4FF47A7005F074F87E
:1010400076E07AA20021084601F02EFF7BA2022161
:10105000002001F029FF7EA20421002001F024FFDE
:1010600025E003F0EBFC7F490870084600780A2869
:1010700005D100200870002D01DD681EC5B2794839
:1010800000780B2806D1002076490870632D01DA1C
:10109000681CC5B274A20621282001F005FF0120BA
:1010A00002232A4606210090412001F0D1FF6D481D
:1010B00000780C28D5D100206A4908706B49087067
:1010C0002946022002F03BFD0446002C29D101F004
:1010D00007FE67A20221002001F0E6FE30A20421F3
:1010E000002001F0E1FE40F2DC5005F01DF801F0B7
:1010F000F7FD64A20021102001F0D6FE65A20221B6
:10110000102001F0D1FE67A20421102001F0CCFED6
:1011100068A20621102001F0C7FE64206949C88139
:10112000F8BD01F0DDFD0027204603F0AFF900BF58
:1011300000BF4FF4C87004F0F7FF0A2E17D151A278
:101140000021102001F0B0FE52A20221102001F077
:10115000ABFE54A20421102001F0A6FE55A20621E8
:10116000102001F0A1FE00204049087000E0BDE61B
:1011700000BF00BFD4E7000020202020C7EBB0B4A0
:10118000CAD6D6B820202020000000002020202031
:10119000D6B8CEC6D5FDB3A3202020200000000085
:1011A000202020202020202020202020202020203F
:1011B00000000000202020C7EBD4D9B0B4D2BBB4CB
:1011C000CE202020000000002020B6D4B1C8C1BD30
:1011D000B4CED6B8CEC620200000000020202020AB
:1011E000B6D4B1C8B3C9B9A62020202000000000A1
:1011F00020202020B6D4B1C8CAA7B0DC20202020EF
:10120000000000002020C9FAB3C9D6B8CEC6C4A3D6
:10121000B0E5202000000000C9FAB3C9D6B8CEC698
:10122000C4A3B0E5B3C9B9A60000000020B0B44B18
:1012300041BCF520B0B44B42BCD32000202020207C
:10124000B0B44B43B1A3B4E620202020000000003E
:101250002020303D3C204944203C3D39392020208D
:1012600000000000140F002049443D00120F002030
:101270002020C2BCC8EBD6B8CEC6B3C9B9A62020C0
:10128000000000004B41BCFCC3DCC2EBD1E9D6A49A
:10129000000000004B42BCFCCCEDBCD3D6B8CEC69F
:1012A000000000004B43BCFCC9BEB3FDD6B8CEC69F
:1012B000000000004B44BCFCD1E9D6A4D6B8CEC691
:1012C00000000000CC3400202248C07A002817DD3E
:1012D0002048C07A401E1F49C8721F48006818B9CC
:1012E00001201D49803108601B480068012807D192
:1012F0001848C07A012803D10020174980310860BE
:101300001448807A00280BDD1248807A401E11496B
:1013100088721248006818B90120104980310860AD
:101320000E480068012808D10A48807A28B90020B0
:101330000A498031086007498880064800890028EA
:1013400007DD04480089401E024908810120044944
:1013500008707047CC3400200C8121423C012142AE
:10136000B834002000BFFEE77047000038B5002405
:101370004AA20021084601F097FD4DA2022100205B
:1013800001F092FD4FA20421002001F08DFD48E004
:1013900003F054FB50490870084600780A2805D12C
:1013A00000200870002C01DD601E84B24A480078DD
:1013B0000B2806D1002048490870632C01DA601C14
:1013C00084B2454800780F2800D14AE042480078AE
:1013D000102819D100204049087002F0D1FA0546C2
:1013E00055B901F07DFC3DA20221002001F05CFD19
:1013F00064203F49C88102E0284603F047F840F2E4
:10140000DC5004F091FE2CE03AA20621282001F0E5
:101410004BFD01200223224606210090412001F0CD
:1014200017FE2D4800780C28B2D10121204602F089
:1014300071FA05466DB901F053FC2FA2022100207C
:1014400001F032FD64202A49C88100202F4908702C
:1014500002E0284603F01AF840F2DC5004F064FE83
:1014600000BF01F03DFC2AA20021102001F01CFD6C
:101470002BA20221102001F017FD2DA20421102023
:1014800001F012FD2EA20621102001F00DFD00201A
:101490001E4908701049087038BD00004B41BCF56A
:1014A000204B42BCD3204B43C8B7C8CF000000003C
:1014B00020204B44C7E5BFD5D6B8CEC6BFE220201A
:1014C000000000004B23B7B5BBD820303D3C494459
:1014D0003C3D393900000000140F002020C7E5BF53
:1014E000D5D6B8CEC6BFE2B3C9B9A6200000000069
:1014F000CC34002049443D002020C9BEB3FDD6B8FD
:10150000CEC6B3C9B9A6202000000000120F0020EB
:101510004B41BCFCC3DCC2EBD1E9D6A40000000007
:101520004B42BCFCCCEDBCD3D6B8CEC6000000000C
:101530004B43BCFCC9BEB3FDD6B8CEC6000000000C
:101540004B44BCFCD1E9D6A4D6B8CEC600000000FE
:1015500010B54FF480710348FEF727FE00200249C2
:10156000088010BDB82B0020EA0E002070B505469B
:10157000002400BF00F054F980B90DA10E48FEF719
:101580002BFE044654B13A212046FEF737FE0446AE
:1015900014B1641C204670BD0020FCE7052004F057
:1015A000C3FD281EA5F101018DB2E3D100BFF2E712
:1015B0004950442C00000000B82B002000B5A1B019
:1015C000FA2004F0B1FDFFF7C3FF32A003F09AFF49
:1015D00003E04FF4967004F0A7FDC8222FA130A0BD
:1015E00000F0D4F80028F4D12FA003F08BFF03E023
:1015F0004FF4967004F098FDC82228A12DA000F0A9
:10160000C5F80028F4D12FA003F07CFF03E04FF4CD
:10161000967004F089FDC82220A12DA000F0B6F834
:101620000028F4D12EA003F06DFF802101A8FEF761
:10163000BCFD2DA32FA230A101A803F073FF03E08E
:101640004FF4967004F070FDC82231A101A800F09B
:101650009DF80028F4D130A003F054FF802101A8A8
:10166000FEF7A3FD40F25B732EA23AA101A803F09E
:1016700059FF03E04FF4FA7004F056FDC8223CA174
:1016800001A800F083F80028F4D13BA003F03AFF52
:1016900021B000BD41540D0A000000004F4B000076
:1016A00041540D0A0D00000043574D4F44450D0AAB
:1016B0000000000041542B43574D4F44453D310D30
:1016C0000A00000041542B4357444843500D0A0080
:1016D00041542B4357444843503D312C310D0A00AF
:1016E00043574A41500D0A003132333435363738CA
:1016F000000000004E45540041542B43574A4150CE
:101700003D222573222C222573220D0A00000000A1
:10171000474F5420495000004349505354415254BC
:101720000D0A0000696F742D30367A3030617864AC
:101730006867666B32346E2E6D7174742E696F74C7
:101740006875622E616C6979756E63732E636F6D57
:101750000000000041542B43495053544152543D22
:1017600022544350222C222573222C25640D0A007A
:10177000434F4E4E45435400455350383236362081
:10178000496E6974204F4B0D0A0000002DE9F041AD
:1017900005460E4614462846FEF73AFD87B23946FE
:1017A000284603F027FB0FE000F03AF848B931462D
:1017B0000948FEF711FD20B1FFF7CAFE0020BDE881
:1017C000F0810A2004F0B0FC201EA4F101018CB2CB
:1017D000EAD10120F3E70000B82B002030B589B032
:1017E00005460C46FFF7B4FE224608A101A803F007
:1017F00099FEC82209A101A8FFF7C8FF18B9214620
:10180000284603F0F7FA09B030BD000041542B43DD
:10181000495053454E443D25640D0A003E000000EA
:101820000A48008808B9012070470848008808491C
:101830000988884203D1002004490880F4E703485E
:101840000088034908800120EEE70000EA0E00202E
:10185000EC0E0020044900E0521C11F8013B002B63
:10186000FAD1500870470000C80D002010B504469A
:10187000062C22D2DFE804F003080D12171C012108
:10188000084602F04FFC18E00121022002F04AFC59
:1018900013E00121042002F045FC0EE001210820A4
:1018A00002F040FC09E00121102002F03BFC04E0C2
:1018B0000121202002F036FC00BF00BF10BD70B532
:1018C00004460D4616462046FFF7D0FF324629460D
:1018D000204600F05AF8204600F001F870BD3EB5F1
:1018E0000446204603F074F80546062C33D2DFE8A0
:1018F00004F0030B131B232A4FF47A70ADF8040095
:101900004820ADF8000026E040F2E730ADF80400D2
:101910004720ADF800001EE04FF47A70ADF80400E7
:101920004820ADF8000016E040F2E630ADF80400C3
:101930004620ADF800000EE05920ADF804004F201D
:10194000ADF8000007E040F2E730ADF804004720B2
:10195000ADF8000000BF00BF0020ADF80600ADF8F4
:1019600002008DF808006946284602F0DFFF0121D9
:10197000284602F0ADFF01221146284602F0CBFFB7
:101980000021284602F0AAFF3EBDF8B506460C46E7
:1019900015464FF4A06001F01FF926B1012E06D0C4
:1019A000022E0CD107E01C208DF8000007E01D205E
:1019B0008DF8000003E01E208DF8000000BF00BF7E
:1019C0008DF801408DF8025001208DF80300684623
:1019D00001F0CAF8F8BD2DE9F041024600250026C5
:1019E000002000230024002791F803C00CF00F050D
:1019F00091F803C00CF0100CBCF1000F03D091F86B
:101A000002C04CEA050591F800C0BCF1000F31D0CE
:101A1000146800202BE04FF0010C0CFA00F3B1F831
:101A200000C00CEA03069E4220D183004FF00F0C49
:101A30000CFA03F7BC4305FA03FC4CEA040491F8E2
:101A400003C0BCF1280F06D14FF0010C0CFA00FCCA
:101A5000C2F814C00AE091F803C0BCF1480F05D1E8
:101A60004FF0010C0CFA00FCC2F810C0401C082812
:101A7000D1D31460B1F800C0BCF1FF0F34DD54685D
:101A800000202EE000F1080C4FF0010808FA0CF3DA
:101A9000B1F800C00CEA03069E4221D183004FF04A
:101AA0000F0C0CFA03F7BC4305FA03FC4CEA0404E0
:101AB00091F803C0BCF1280F05D100F1080C08FA19
:101AC0000CF8C2F8148091F803C0BCF1480F07D19C
:101AD00000F1080C4FF0010808FA0CF8C2F8108069
:101AE000401C0828CED35460BDE8F081F0B50A460A
:101AF000002300240021002500F00046B6F1004F2D
:101B000002D11D4EF16901E01B4E7168C0F303451F
:101B100083B200F44016B6F5401F08D121F0706181
:101B2000154E766826F07066134F7E6012E000F462
:101B30008016B6F5801F06D1032606FA05F4A143E8
:101B400041F0706106E0460D360103FA06F6B14336
:101B500041F0706122B1460D360103FA06F63143B9
:101B600000F00046B6F1004F02D1034EF16101E0F2
:101B7000014E7160F0BD00000000014041617047FE
:101B80000161704700BFFEE710B54FF4A06001F09F
:101B900023F8FFF75FFE1D49086004F0A3FA012255
:101BA00000210220FFF78BFE4FF4E13003F04EFCE2
:101BB0004FF4614003F06EF94FF4E13003F0C6F8E2
:101BC00002F0F0FC00F022F900F0F6F802F00AFF53
:101BD00002F052FB01F0CEF8002001F086F8002060
:101BE00001F091F802E0052004F09EFA0849094846
:101BF00002F08BFB0128F6D101F072F800200649B3
:101C000008600649C1F8BC0110BD0000A80E002004
:101C1000CC340020080F00208C812142000021429A
:101C200010B500242B48C07A002851D102F006FFDD
:101C30000446002C4CD00A2C16D101F051F826A2F3
:101C40000021202001F030F926A20421102001F00B
:101C50002BF928A20621102001F026F9012029499C
:101C60000870294988702AE00B2C07D101F038F858
:101C7000FFF738F902202349087020E00C2C07D127
:101C800001F02EF8FFF772FB03201E49087016E0E2
:101C9000102C11D101F024F81CA20221202001F007
:101CA00003F91DA20421202001F0FEF804F0F2FE49
:101CB00004201449087002E00D2C00D000BF192048
:101CC0000449C8810F480278214615A003F01AFC88
:101CD00010BD0000CC340020C3DC20202020C2EB4B
:101CE000000000004B41BCF52020204B43C8B7C882
:101CF000CF000000202020202020204B23B7B5BBA0
:101D0000D8000000120F0020B8340020C7EBB0B498
:101D1000CAD6D6B8000000004B2320B7B5BBD80008
:101D20006B65793A253032642C25640D0A00000079
:101D30007CB50546EF208DF8000001208DF80100EC
:101D40001A480068000E8DF8020018480068000C60
:101D50008DF8030015480088000A8DF80400134828
:101D600000788DF8050007208DF8060000208DF81A
:101D700007000F49088012E0012004F0D5F90C4853
:101D8000008800F4004050B10020094908806946ED
:101D90000848FEF721FA04460CB120467CBD681EB7
:101DA00080B2051EE8D100BFF8E70000C00E002099
:101DB000CA0E00206C1F002008B50121082002F087
:101DC000D1F94FF48050ADF8000048208DF80300A1
:101DD00069460D48FFF7FFFD4FF40050ADF80000D5
:101DE00048208DF8030069460748FFF7F4FD4FF4DB
:101DF0008040ADF8000048208DF803006946024895
:101E0000FFF7E9FD08BD0000000C014008B5012105
:101E10000C2002F0A7F91020ADF800008DF80300A7
:101E200003208DF8020069460348FFF7D4FD002027
:101E30000249086008BD0000000C01409081214269
:101E400010B50446207B012802D1206803F082FBF4
:101E5000002020606060A060207310BD0246002357
:101E600001230DE002F07F000870D2092AB1087842
:101E700040F080000870491C01E0184670475B1C68
:101E8000042BEFDD4FF0FF30F8E7000010B5C0B0D5
:101E900004464FF480716846FEF787F91BA000885E
:101EA00020801B48407C70B14FF480716846FEF77B
:101EB0007CF91848C28818A1684603F033FB6946CC
:101EC0002046FEF77DF94FF480716846FEF76DF904
:101ED0001448C28814A1684603F024FB69462046D2
:101EE000FEF76EF94FF480716846FEF75EF911A1B6
:101EF000684603F017FB69462046FEF761F9204665
:101F0000FEF786F9C0B240B010BD00007B000000B3
:101F1000B8340020CC34002022707764223A222585
:101F200064222C00080F002022646F6F72223A2274
:101F3000256422007D00000070B504460E46002591
:101F4000206898B901202073304603F031FB2060EF
:101F50002068E0B100206060A66003E000202168F6
:101F600048556D1CA068A842F8D810E002202073E4
:101F700003E00020216848556D1CA068A842F8D8ED
:101F800000206060A068B04201D20020206070BDD7
:101F90002DE9FF5F07460D4690463846FEF738F9B3
:101FA00086B22846FEF734F91FFA80FA4FF000098E
:101FB000B01D03F0FDFA04461CB9012004B0BDE8D1
:101FC000F09FB11D2046FEF7F0F812A001682160D5
:101FD0008088A080324639462046FEF72EF92846F2
:101FE000FEF716F983460120002100915B462A4640
:101FF000CDE90208019121460A2000F05FF910B9ED
:102000004FF0000901E04FF00109204603F0A2FA69
:102010004846D3E724637273702F00002DE9FF4F09
:1020200083B082468B469146159C00250020029085
:102030000F2701904846FEF7EBF80FFA80F8B9F148
:10204000000F03D1012007B0BDE8F08F08F10200B6
:10205000384487B2109808B145F00205129878B15B
:1020600045F004051298FEF7D3F8C0B20290139819
:10207000FEF7CEF801460298001D0844384487B2A6
:10208000119820B1012804D0022808D104E000BF33
:1020900007E045F00C0504E045F0140501E00220DE
:1020A000D1E700BF149808B145F02405BAF1000F3C
:1020B00002D0BBF1000F01D10320C4E745F0C005F9
:1020C0005046FEF7A5F806465846FEF7A1F83044FC
:1020D000001D384487B239462046FFF72DFF20689F
:1020E00008B90420AFE739462068FEF75EF81021F2
:1020F0006268501C606020688154D4E90023D118C4
:10210000781FFFF7ABFE00B201900198002804DAB7
:102110002046FFF795FE052095E761680198084481
:10212000606000216268501C606020688154042156
:102130006268501C6060206881544D216268501CA8
:1021400060602068815451216268501C6060206882
:10215000815454216268501C606020688154626818
:10216000501C60602068815404216268501C6060CB
:10217000206881546168481C606020684554069856
:10218000010A6268501C6060206881540698C1B2E0
:102190006268501C606020688154C8F3072162683F
:1021A000501C6060206881546268501C6060206828
:1021B00000F80280D4E90012881842464946FEF72A
:1021C0003CF860684044606005F00400B8B3002645
:1021D000139808B938A013901298FEF719F886B230
:1021E000310A6268501C6060206881546268501C2B
:1021F000606020688654D4E900128818324612992B
:10220000FEF71BF86068304460601398FEF700F832
:1022100086B2310A6268501C60602068815462682E
:10222000501C606020688654D4E900128818324639
:102230001399FEF702F860683044606000BF05F053
:102240008000C8B15046FDF7E3FF86B2310A6268EC
:10225000501C6060206881546268501C6060206877
:102260008654D4E90012881832465146FDF7E5FF3E
:1022700060683044606000BF05F04000C8B1584657
:10228000FDF7C6FF86B2310A6268501C60602068A4
:1022900081546268501C606020688654D4E9001242
:1022A000881832465946FDF7C8FF606830446060C0
:1022B00000BF0020C7E60000000000002DE9FF4F2E
:1022C00083B0834690469946139C00260025002043
:1022D000029001900027BBF1000F03D1012007B04D
:1022E000BDE8F08F00250AE00498405D232803D064
:1022F0000498405D2B2801D10220F0E76D1C049862
:10230000405D0028F0D147F03007119808B147F040
:10231000010705EB0900861C109820B1012804D0A4
:1023200002280AD105E000BF09E047F00207B61C09
:1023300005E047F00407B61C01E00320CFE700BF2B
:1023400098F80000022822D14FF0000A00BF504642
:102350000AF1010A18F800007D28F8D1AAF1030A51
:102360000AF1070002900298A9EB000AF01CA0EB0A
:102370000A012046FFF7E0FD206808B90420AEE717
:10238000F21CA2EB0A012068FDF70FFF0BE0F11C25
:102390002046FFF7D1FD206808B904209FE7F11C13
:1023A0002068FDF702FF6168481C606020684754A0
:1023B000D4E9000281183046FFF750FD01900198E2
:1023C000002804DA2046FFF73BFD052087E7616817
:1023D000019808446060C5F307216268501C606082
:1023E000206881546268501C606020688554D4E97C
:1023F000001288182A460499FDF71FFF60682844D8
:102400006060109860B14FEA1B216268501C6060E8
:10241000206881546268501C6060206800F802B037
:10242000B8F1000F19D098F8000002280BD1D4E9B8
:10243000001288184146029AFDF79EFE61680298D4
:102440000844606009E0D4E9001288184A46414611
:10245000FDF792FE60684844606000203FE770B579
:1024600005460C4604212046FFF766FD206808B9A2
:10247000012070BD40216268501C6060206881545A
:1024800002216268501C60602068815429126268D1
:10249000501C6060206881546268501C6060206835
:1024A00085540020E5E770B505460C46042120461A
:1024B000FFF742FD206808B9012070BD70216268F5
:1024C000501C60602068815402216268501C60606A
:1024D0002068815429126268501C60602068815411
:1024E0006268501C6060206885540020E5E770B584
:1024F00005460C4604212046FFF71EFD206808B95A
:10250000012070BD50216268501C606020688154B9
:1025100002216268501C6060206881542912626840
:10252000501C6060206881546268501C60602068A4
:1025300085540020E5E770B505460C460421204689
:10254000FFF7FAFC206808B9012070BD62216268BB
:10255000501C60602068815402216268501C6060D9
:102560002068815429126268501C60602068815480
:102570006268501C6060206885540020E5E72DE902
:10258000FF5F8046174699460E9C0026B246B3462A
:102590000025B8F1000F03D1012004B0BDE8F09F81
:1025A0000BE057F8250008B90220F6E757F8250098
:1025B000FDF72EFE0644681CC5B24D45F1DB09EB64
:1025C0004900801C00EB060A0AF105012046FFF7CE
:1025D000B3FC206808B90320DFE782216268501C41
:1025E000606020688154D4E9000281185046FFF7EA
:1025F00035FC0FFA80FBBBF1000F04DA2046FFF731
:102600001FFC0420C9E76068584460604FEA182145
:102610006268501C6060206881546268501C606071
:10262000206800F80280002524E057F82500FDF717
:10263000EFFD0646C6F307216268501C6060206803
:1026400081546268501C606020688654D4E900237D
:10265000D01857F825103246FDF7EFFD606830447A
:1026600060600198C1B26268501C6060206881544B
:10267000681CC5B24D45D8DB00208EE7F0B5044696
:102680000D462646012300201060002114E0775CEF
:1026900007F07F07106807FB03001060705C00F014
:1026A000800008B9481CF0BDDB01B3F5001F02D360
:1026B0006FF00100F7E7491CA942E8DB4FF0FF305B
:1026C000F1E72DE9F84380460C4615461E462F21BA
:1026D00008F10600FDF792FD07460020009017B9AB
:1026E0000120BDE8F8837F1C6A46042108F101003F
:1026F000FFF7C4FF252002F05BFF2060206808B9C7
:102700000220EEE725212068FDF74FFD24223946FF
:102710002068FDF731FD243700982C38308031884F
:10272000481C02F045FF2860286820B9206802F0A4
:1027300011FF0320D5E73288511C2868FDF735FDCD
:10274000328839462868FDF717FD0020C9E70146A1
:102750004878022801D001207047887810B1887825
:10276000012801D1C878F7E7FF20F5E72DE9FC5FE4
:1027700081460D4614461E46DDE90C8B99F8000093
:1027800000F00F0A002001900AF008000090CAF340
:1027900041008BF8000001AA042109F10100FFF7B4
:1027A0006DFF4844471C0198022802D30AF001003B
:1027B00010B1FF20BDE8FC9F7878397840EA01200D
:1027C00020802088801C0199884201D9FF20F1E7F0
:1027D00054A1B81CFDF700FD08B10F20EAE79BF8F3
:1027E000000020B101283DD0022877D13BE00098BD
:1027F00008B1FF20DEE72188481C02F0D9FE2860DE
:10280000286808B9FF20D5E72288511C2868FDF701
:10281000CCFC2288B91C2868FDF7AEFC0198801E0C
:102820002188401AA8F80000B8F80010481C02F0EF
:10283000BFFE3060306820B9286802F08BFEFF20B0
:10284000B8E7B8F80020511C3068FDF7AEFCB8F8C6
:102850000020B4F800C0BB1C0CEB03013068FDF78E
:102860008BFC4FE000BF2088801C0199884201D971
:10287000FF209FE72088C01C395C2088801C385CC2
:1028800041EA00210E9801800E9808B9FF2091E7D7
:102890002188481C02F08CFE2860286808B9FF20B7
:1028A00088E72288511C2868FDF77FFC2288B91C24
:1028B0002868FDF761FC0198001F2188401AA8F8DC
:1028C0000000B8F80010481C02F072FE306030685A
:1028D00028B9286802F03EFEFF206BE710E0B8F848
:1028E0000020511C3068FDF760FCB8F80020B4F8F7
:1028F00000C03B1D0CEB03013068FDF73DFC01E01F
:10290000FF2057E700BF2B212846FDF777FC20B9B1
:1029100023212846FDF772FC08B1FF204AE700207A
:1029200048E70000246372657100000001464878A2
:10293000022801D001207047887820B9C8780A2879
:1029400001D10020F7E70120F5E701464878022889
:1029500001D001207047887820B9C8780A2801D1B1
:102960000020F7E70120F5E701464878022801D06A
:1029700001207047887820B9C8780A2801D1002042
:10298000F7E70120F5E702465078022801D0012040
:1029900070479078B0EB112F05D1D078CBB2984228
:1029A00001D10020F4E70120F2E70000F8B5044669
:1029B000FF2720780511012D01DB0E2D01DD3846A2
:1029C000F8BD032D24D1002000906A460421601C2C
:1029D000FFF754FE2044461C0098022803D32078B9
:1029E00000F0010008B1FF20EAE77078317840EA92
:1029F0000120801C0099884201D9FF20E0E706A150
:102A0000B01CFDF7E9FB08B10F2700E0032700E049
:102A10002F463846D4E70000246372657100000039
:102A20000146FF208A78A2B9CA78142A11D10A79FE
:102A300032B1012A05D0022A04D0802A06D103E04F
:102A400000BF00BF002003E0012001E0022000BF22
:102A500000BF7047014601208A781AB9CA781E2A39
:102A600000D100207047000000BF0549098801F02F
:102A700040010029F9D00249091D08807047000073
:102A80000048004000BFFEE710B5A0B0044680211A
:102A90006846FDF78AFB11A00088208080216846E7
:102AA000FDF783FB00220EA1684602F03BFD69465C
:102AB0002046FDF785FB80216846FDF776FB0DA1DA
:102AC000684602F02FFD69462046FDF779FB204657
:102AD000FDF79EFBC0B220B010BD00007B000000DF
:102AE00022636865636B5F646576696365223A2279
:102AF000256422007D00000010B5A0B004468021AE
:102B00006846FDF752FB11A00088208080216846AE
:102B1000FDF74BFB0E4842880EA1684602F002FD0D
:102B200069462046FDF74CFB80216846FDF73DFBDA
:102B30000BA1684602F0F6FC69462046FDF740FB13
:102B40002046FDF765FBC0B220B010BD7B00000041
:102B5000CC34002022736574223A222564220000BE
:102B60007D0000007047000070B5002100230F2297
:102B7000C47804B3154C246804F4E064C4F5E0643C
:102B8000210AC1F10403CA40447804FA03F18478AD
:102B90001440214309010E4C0678A155047804F035
:102BA0001F050124AC4005786D11AD0005F1E0254D
:102BB000C5F8004109E0047804F01F050124AC4089
:102BC000044D0678761145F8264070BD0CED00E006
:102BD00000E400E080E100E002490143024A1160A4
:102BE000704700000000FA050CED00E000B58DB064
:102BF00000F076F821A1684602F094FC6A460021B4
:102C0000084600F051F921A221A1684602F08AFC91
:102C10006A460221002000F047F922A224A168465A
:102C200002F080FC6A460421002000F03DF925A155
:102C3000684602F077FC6A460621002000F034F96D
:102C4000FEF7BCFC03E04FF4967003F06DFA00F061
:102C500095FA0028F7D103E04FF4967003F064FA78
:102C600001211D4800F0E0FD0028F5D13C201B4962
:102C7000087000F035F80DB000BD00002DC7EBB4B2
:102C8000F2BFAA57494649C8C8B5E3004E455400AB
:102C90002DC3FBB3C63A25732020202020202020FE
:102CA0002000000031323334353637380000000060
:102CB0002DC3DCC2EB3A25732020202020202020C9
:102CC000200000002DC6B5C2CA3A20322E3420475B
:102CD000487A20202000000000000020040F00207F
:102CE00010B5002000F025F810BD10B504461CB941
:102CF0000021A62000F000FA012C03D10021A7201A
:102D000000F0FAF910BD10B504463CB90021C82006
:102D100000F0F2F90021A12000F0EEF9012C07D11A
:102D20000021C02000F0E8F90021A02000F0E4F923
:102D300010BD70B50646002419E004F1B001C8B218
:102D4000002100F0D9F90021084600F0D5F9002152
:102D5000102000F0D1F9002505E00121304600F0F7
:102D6000CBF9681CC5B2822DF7DB601CC4B2082CFD
:102D7000E3DB70BD08B50121082001F0F3F94FF441
:102D80004C50ADF8000010208DF8030003208DF8A2
:102D9000020069463D48FEF71EFE4FF44C513B4889
:102DA000FEF7EEFE0021AE2000F0A6F90021084655
:102DB00000F0A2F90021102000F09EF9002140202F
:102DC00000F09AF90021812000F096F90021CF202F
:102DD00000F092F90021A12000F08EF90021C82016
:102DE00000F08AF90021A62000F086F90021A82031
:102DF00000F082F900213F2000F07EF90021D3206D
:102E000000F07AF90021084600F076F90021D5207B
:102E100000F072F90021802000F06EF90021D92025
:102E200000F06AF90021F12000F066F90021DA20B3
:102E300000F062F90021122000F05EF90021DB2091
:102E400000F05AF90021402000F056F9002120201E
:102E500000F052F90021022000F04EF900218D20EF
:102E600000F04AF90021142000F046F90021A420C6
:102E700000F042F90021A62000F03EF90021AF2029
:102E800000F03AF9FFF72CFF08BD0000000C0140EC
:102E900010B50246012000E050430B1EA1F10104D1
:102EA000E1B2F9D110BD00002DE9F0470746884690
:102EB0001646002584E03078A02845DD00253CE05A
:102EC000702F04DD002708F1020000F0FF083078C1
:102ED0003E4911F8151088422ED17078012101EB7E
:102EE00045013A4A515C884226D14146384600F0B5
:102EF000EDF8002407E004EB4511354A505C012150
:102F000000F0FAF8641C102CF5D308F10100C1B2EE
:102F1000384600F0DBF8002408E004EB45111031DE
:102F20002B4A505C012100F0E7F8641C102CF4D30C
:102F300007F11000C7B204E06D1C26480068854206
:102F4000BED300BFB61C3BE07A2F04DD002708F19A
:102F5000020000F0FF0831781F48FDF74FF9814665
:102F6000B9F1000F2BD04146384600F0AFF80024ED
:102F70000AE099F80010203904EB0111174A505C5F
:102F8000012100F0B9F8641C082CF2D308F101000B
:102F9000C1B2384600F09AF800240BE099F800100E
:102FA000203904EB011108310C4A505C012100F07A
:102FB000A3F8641C082CF1D307F10800C7B2761CF3
:102FC000307800287FF477AFBDE8F087C80D002087
:102FD00008060020A80E0020450E00201800002042
:102FE0002DE9F04107460E46904600250024A8F141
:102FF0002000C5B2812F02DD0027B01CC6B23146C9
:10300000384600F063F8002408E004EB05110F4A8D
:10301000505C012100F070F8601CC4B2082CF4DB95
:10302000701CC1B2384600F051F8002409E004EBEE
:1030300005110831054A505C012100F05DF8601C63
:10304000C4B2082CF3DBBDE8F081000018000020BA
:103050002DE9F0470546894690461E46DDF820A03A
:1030600000242FE0301B401EC1B20A20FFF710FFE2
:10307000B8FBF0F00A21B0FBF1F201FB1207A7B98F
:10308000BAF1000F08D0082101FB0451C8B2302268
:103090004946FFF7A5FF07E0082101FB0451C8B22C
:1030A00020224946FFF79CFF0AE007F13001CAB22F
:1030B000082101FB0451C8B24946FFF791FF00BF48
:1030C000601CC4B2B442CDDBBDE8F08770B50446E5
:1030D0000D4605F1B001C8B2002100F00DF8102135
:1030E00041EA1410002100F007F804F00F0000215D
:1030F00000F002F870BD000070B504460E462EB117
:103100004FF480511C48FEF73BFD04E04FF4805122
:103110001948FEF733FD4FF400511748FEF72EFD16
:1031200000251BE04FF480711348FEF727FD04F0E3
:10313000800028B14FF400710F48FEF721FD04E034
:103140004FF400710C48FEF719FD4FF480710A48E6
:10315000FEF716FD6006040E681CC5B2082DE1DB03
:103160004FF400510448FEF70BFD4FF48051024824
:10317000FEF706FD70BD0000000C014030B58BB0BD
:1031800000200790089009900A900125354B364A97
:1031900036A13CA002F0B6F907A8002102910391E4
:1031A000CDE9041000912B022E4A01912E492FA047
:1031B000FEF734FF002843D1089A91B20798FEF732
:1031C0000DFBFA20FEF7D2F90446002C2FD0204642
:1031D000FFF7ECFB02282AD12046FFF7B8FA0628B1
:1031E00020D2DFE800F0030B0F13171B2DA002F015
:1031F00089F9002500203049C87017E02FA002F09F
:1032000081F913E034A002F07DF90FE03BA002F059
:1032100079F90BE041A002F075F907E048A002F04F
:1032200071F903E051A002F06DF900BF00BF224820
:10323000C078401C2049C87007A8FEF701FE07E0CF
:103240001D48C078401C1C49C8704FA002F05AF9B4
:103250001948C078022801DD01F05CF928460BB05E
:1032600030BD000078710008347100084D5154548D
:103270005F446576696365266839736A714741659D
:103280006268360050524F49443A2025730941552F
:1032900049463A2025730944455649443A25730D59
:1032A0000A000000546970733A09C1ACBDD3B3C9B8
:1032B000B9A60D0A00000000B83400205741524E54
:1032C0003A09C1ACBDD3CAA7B0DCA3BAD0ADD2E92C
:1032D000B4EDCEF30D0A00005741524E3A09C1AC8D
:1032E000BDD3CAA7B0DCA3BAB7C7B7A8B5C4636CCF
:1032F00069656E7469640D0A000000005741524E02
:103300003A09C1ACBDD3CAA7B0DCA3BAB7FECEF1AF
:10331000C6F7CAA7B0DC0D0A000000005741524EA4
:103320003A09C1ACBDD3CAA7B0DCA3BAD3C3BBA70B
:10333000C3FBBBF2C3DCC2EBB4EDCEF30D0A00005D
:103340005741524E3A09C1ACBDD3CAA7B0DCA3BAAB
:10335000B7C7B7A8C1B4BDD328B1C8C8E7746F6BED
:10336000656EB7C7B7A8290D0A0000004552523A4A
:1033700009C1ACBDD3CAA7B0DCA3BACEB4D6AAB437
:10338000EDCEF30D0A0000005741524E3A094D515F
:1033900054545F5061636B6574436F6E6E65637404
:1033A000204661696C65640D0A00000070B58CB040
:1033B00006460020089009900A900B90079006900E
:1033C000059004900024039000253046FFF7EEFAA4
:1033D0000446E01E0D2870D2DFE800F028707B93D1
:1033E000ADCDB5CDC1CDCDCD070004AB07AA06A9A3
:1033F0003046FFF766F90546BDB9BDF810306BA041
:10340000DDE9061202F07EF808AADDE90601FEF702
:10341000BFFD50B96EA002F075F8099A91B20898F4
:10342000FEF7DCF908A8FEF70BFDA7E06E4803A93C
:1034300004AA07ABCDE90021029005AA06A93046EF
:10344000FFF794F90546002D36D1BDF81000009025
:10345000BDF8142065A0DDE9061302F053F89DF8CD
:103460000C00012802D0022824D111E008A95E48EE
:103470000088FEF7F4FF50B96BA002F043F8099AF8
:1034800091B20898FEF7AAF908A8FEF7D9FC12E055
:1034900008A955480088FFF72AF850B968A002F03B
:1034A00031F8099A91B20898FEF798F908A8FEF742
:1034B000C7FC00E000BF00BF60E05CE03046FFF703
:1034C00035FA10B964A002F01DF83C206A49087072
:1034D00054E03046FFF748FA90B968A002F012F8BD
:1034E00008A90A20FFF727F850B96AA002F00AF8E5
:1034F000099A91B20898FEF771F908A8FEF7A0FCA6
:103500003CE0394801883046FFF73DFA90B967A0A2
:1035100001F0F8FF08A90A20FEF7C5FF50B969A01D
:1035200001F0F0FF099A91B20898FEF757F908A840
:10353000FEF786FC22E03046FFF707FA10B968A0D4
:1035400001F0E0FF1AE03046FFF76AFA18B96AA006
:1035500001F0D8FF02E06FA001F0D4FF0EE030468A
:10356000FFF778FA18B972A001F0CCFF02E077A05B
:1035700001F0C8FF02E04FF0FF3500BF00BFFDF7CC
:10358000E7FF681C08B90CB070BD079810B1079828
:1035900002F0D2FE0F2C01D0032C05D1069801F0C9
:1035A000D9FF079801F0D6FF00BFECE7636D6469AF
:1035B000643A2025732C207265713A2025732C20E3
:1035C0007265715F6C656E3A2025640D0A0000001B
:1035D000546970733A0953656E6420436D64526593
:1035E00073700D0A00000000060F0020746F7069F0
:1035F000633A2025732C20746F7069635F6C656E6D
:103600003A2025642C207061796C6F61643A202522
:10361000732C207061796C6F61645F6C656E3A2009
:1036200025640D0A00000000546970733A0953655F
:103630006E64205075626C69736841636B0D0A009B
:10364000546970733A0953656E64205075626C69F1
:1036500073685265630D0A00546970733A094D51DD
:103660005454205075626C6973682053656E6420F1
:103670004F4B0D0A00000000040F002054697073C6
:103680003A09526576205075626C697368526563B9
:103690000D0A0000546970733A0953656E64205036
:1036A00075626C69736852656C0D0A0054697073B9
:1036B0003A09526576205075626C69736852656C80
:1036C0000D0A0000546970733A0953656E64205006
:1036D00075626C697368436F6D700D0A00000000BD
:1036E000546970733A09526576205075626C69733B
:1036F00068436F6D700D0A00546970733A094D513B
:10370000545420537562736372696265204F4B0D88
:103710000A000000546970733A094D515454205303
:103720007562736372696265204572720D0A0000EA
:10373000546970733A094D51545420556E53756253
:10374000736372696265204F4B0D0A005469707390
:103750003A094D51545420556E5375627363726922
:103760006265204572720D0A0000000030B5C9B0D4
:1037700004460020459046904790489000254FF41D
:10378000807105A8FCF711FD012C06D0022C09D090
:10379000032C0CD0042C14D10EE005A8FEF776FB08
:1037A00005460FE005A8FFF7A7F905460AE005A8BA
:1037B000FFF76AF9054605E005A8FFF765F9054634
:1037C00000E000BF00BFCDB145A801210022CDE936
:1037D00000122B4605AACDE9021009A10A20FEF726
:1037E0006DFD40B9469A91B24598FDF7F7FF45A89F
:1037F000FEF726FB02E00AA001F084FE49B030BDCE
:103800002F62726F6164636173742F6839736A71B8
:103810004741656268362F7465737432000000009A
:103820005741524E0D0A0000F0B585B004460D46D2
:1038300000260020019002900390049006E054F8C6
:1038400026101FA001F05EFE701CC6B2AE42F6DB71
:1038500001A82B462246022100901420FEF78FFE7D
:1038600000282BD1029A91B20198FDF7B7FF4FF4CF
:10387000FA70FDF77BFE07463846FFF797F80928F0
:103880000AD115A001F03EFE01A8FEF7D9FA0020EA
:103890001849C87005B0F0BD17A001F033FE01A8AB
:1038A000FEF7CEFA1348C078401CC0B21149C87068
:1038B000022801DD00F02EFE0120EBE70120E9E700
:1038C00053756273637269626520546F7069633AFD
:1038D0002025730D0A000000546970733A094D5198
:1038E000545420537562736372696265204F4B0DA7
:1038F0000A000000B8340020546970733A094D5131
:103900005454205375627363726962652045727204
:103910000D0A00002DE9F04104460D4600F029FD96
:1039200000F0FEFC012000F01EFD072000F029FD44
:103930000C2000F030FD2012FFF796F8E0B2FFF700
:1039400093F82812FFF790F8E8B2FFF78DF81420EB
:1039500000EB2420E1B2084400EB2520E9B200EBA3
:103960000108404600F0F6FC4FF4FA60FEF7E0F97B
:1039700007460FB17E7A00E0FF263046BDE8F081B1
:1039800070B500F0F6FC00F0CBFC012000F0EBFC81
:10399000032000F0F6FC0D2000F0FDFC112630465F
:1039A00000F0D8FC4FF4FA60FEF7C2F905460DB1FD
:1039B0006C7A00E0FF24204670BD2DE9F0410546F9
:1039C00000F0D7FC00F0ACFC012000F0CCFC04209F
:1039D00000F0D7FC022000F0DEFC2846FFF744F898
:1039E000EF1D384600F0B6FC4FF4FA60FEF7A0F980
:1039F00006460EB1747A00E0FF242046BDE8F0814F
:103A000070B500F0B6FC00F08BFC012000F0ABFCC0
:103A1000032000F0B6FC012000F0BDFC0526304676
:103A200000F098FC4FF4FA60FEF782F905460DB1FC
:103A30006C7A00E0FF24204670BD2DE9F0478146F6
:103A40000D4616461F4600F094FC00F069FC01206C
:103A500000F089FC082000F094FC1B2000F09BFC87
:103A60004846FFF701F82812FEF7FEFFE8B2FEF71E
:103A7000FBFF3012FEF7F8FFF0B2FEF7F5FF09F199
:103A8000240000EB2520E9B2084400EB2620F1B227
:103A900000EB010A504600F05DFC4FF4FA60FEF7BF
:103AA00047F9044664B194F80980E07AA17A00EB02
:103AB00001203880607B217B00EB0120788001E0D1
:103AC0004FF0FF084046BDE8F08770B500F051FCAC
:103AD00000F026FC012000F046FC032000F051FC21
:103AE000032000F058FC0726304600F033FC4FF46A
:103AF000FA60FEF71DF905460DB16C7A00E0FF246F
:103B0000204670BD70B500F034FC00F009FC0120C7
:103B100000F029FC032000F034FC052000F03BFC01
:103B20000926304600F016FC4FF4FA60FEF700F963
:103B300005460DB16C7A00E0FF24204670BD2DE9EA
:103B4000F04106460C4600F014FC00F0E9FB0120B1
:103B500000F009FC062000F014FC062000F01BFC1D
:103B60003046FEF781FF2012FEF77EFFE0B2FEF73F
:103B70007BFF06F10D0000EB2420E1B200EB010811
:103B8000404600F0E7FB4FF4FA60FEF7D1F8074635
:103B90000FB17D7A00E0FF252846BDE8F08170472F
:103BA00000B58FB09048C07A00287DD100F046FF64
:103BB0008E4908700846007810B119208A49C881DA
:103BC0008A480078002803DD884800780A2803DB4B
:103BD000864800780E283DD1844800780E2802D10E
:103BE00000208249087082480078042809DA7F485A
:103BF00001787F4802780078401C7D4B18707D4822
:103C00008154002005E07B49095C303102AA11543F
:103C1000401C764909788842F5DB00208DF80C00BD
:103C200002A8FCF7DDFC7449088000206F49087089
:103C30007048C0786F498978CDE900106D484378A5
:103C400002786EA102A801F06DFC02AA02211C20DC
:103C5000FFF72AF9654800780A2838D1002063491F
:103C6000087063480078002809DD0846017860483C
:103C70000078401EC0B25E4A10705E4A11540020A7
:103C800005E05C49095C303102AA1154401C5749D7
:103C900009788842F5DB00208DF80C0002A8FCF7BB
:103CA0009FFC5549088000E095E05248C078514992
:103CB0008978CDE900104F48437802784FA102A8D7
:103CC00001F030FC02AA02211C20FFF7EDF8474862
:103CD00000780C2844D14748C07846498978CDE916
:103CE000001044484378027848A102A801F01AFC69
:103CF00002A8FCF775FC40490880084600883A494C
:103D0000C8800846C088498888421FD101203649AA
:103D1000888041A202212020FFF7C6F80320324903
:103D200008700A2088720120088100203D494874EB
:103D300000BF03E000212F4A1154401C2C49097890
:103D40008842F7DB00202A49087006E00120354947
:103D50004874087005202449088100202349087010
:103D600022480078102815D1FEF7BAFF2EA20021B4
:103D70002020FFF799F82FA204211020FFF794F8D4
:103D800030A206211020FFF78FF800F08FF80020F6
:103D900016490870154800780F281CD100202149C9
:103DA00088702C49087011490870FEF799FF2AA203
:103DB00000211020FFF778F82BA202211020FFF736
:103DC00073F82DA204211020FFF76EF82EA2062111
:103DD0001020FFF769F8044801781E4802782EA0E9
:103DE00001F090FB0FB000BDCC340020140F002078
:103DF000B80E0020B90E0020BE0E00202025642041
:103E00002564202564202564202000002564256485
:103E10002564256400000000D1E9D6A4B3C9B9A681
:103E200000000000B8340020C9E820202020D6C3BC
:103E3000000000004B41BCF52020204B43C8B7C810
:103E4000CF000000202020202020204B23B7B5BB2E
:103E5000D8000000120F00204B41BCFCC3DCC2EBB9
:103E6000D1E9D6A4000000004B42BCFCCCEDBCD391
:103E7000D6B8CEC6000000004B43BCFCC9BEB3FDA3
:103E8000D6B8CEC6000000004B44BCFCD1E9D6A495
:103E9000D6B8CEC6000000004572726F725F4E75D4
:103EA0006D3A2025642025640A00000030B591B0E9
:103EB0000024002003909DF80F009DF80E10CDE91E
:103EC00000109DF80D309DF80C207CA104A801F095
:103ED00029FB04AA02211C20FEF7E6FFB2E000F055
:103EE000ADFD7A4908700846007810B1192078496C
:103EF000C88176480078002803DD744800780A28D5
:103F000003DB724800780E283DD1704800780E28F7
:103F100002D100206D490870042C06DA6B48027843
:103F20002046611CCCB203A90A54002005E003A975
:103F3000095C303104AA1154401C64490978884254
:103F4000F5DB00208DF8140004A8FCF749FB85B2CE
:103F5000224629465FA001F0D5FA00205B4908708F
:103F60009DF80F009DF80E10CDE900109DF80D3062
:103F70009DF80C2051A104A801F0D4FA04AA022152
:103F80001C20FEF791FF514800780A2831D100200B
:103F90004E490870002C06DD08460178601EC0B24C
:103FA000044603AA1154002005E003A9095C30313E
:103FB00004AA1154401C454909788842F5DB0020C9
:103FC0008DF8140004A8FCF70BFB85B29DF80F00D8
:103FD0009DF80E10CDE900109DF80D309DF80C20D5
:103FE00036A104A801F09EFA04AA02211C20FEF7C3
:103FF0005BFF364800780C281FD1042C1AD139A257
:1040000002212020FEF750FF3148458001F06EFA72
:1040100040F2DC5002F088F84FF4FA7002F084F8B5
:104020002B48418822462BA001F06CFA022030492F
:1040300008700DE0002025490870244800780F28FA
:1040400000D105E0214800780C287FF448AF00BF7C
:1040500000202849087000BF03E0002103AA115482
:10406000401CA042F9DB0024002018490870FEF72C
:1040700037FE21A200212020FEF716FF9DF80F0039
:104080009DF80E10CDE900109DF80D309DF80C2024
:104090000AA104A801F046FA04AA02211C20FEF796
:1040A00003FF18A204211020FEF7FEFE19A206212C
:1040B0001020FEF7F9FE11B030BD0000202564206D
:1040C000256420256420256420200000140F002092
:1040D000CC3400207077643A25642C6E756D3A25D7
:1040E000640A0000C9E8D6C3B3C9B9A6000000003D
:1040F000B8340020120F0020C3DC20202020C2EBA7
:10410000000000004B41BCF52020204B43C8B7C83D
:10411000CF000000202020202020204B23B7B5BB5B
:10412000D800000029B1064AD2690243044BDA6183
:1041300004E0034AD2698243014BDA617047000010
:104140000010024029B1064A12690243044B1A6169
:1041500004E0034A12698243014B1A617047000070
:104160000010024029B1064A92690243044B9A6149
:1041700004E0034A92698243014B9A617047000050
:104180000010024029B1064AD2680243044BDA60AB
:1041900004E0034AD2688243014BDA6070470000B2
:1041A0000010024030B500210022002400232D4DD4
:1041B0006D6805F00C0121B1042905D0082923D12F
:1041C00005E0294D056022E0274D05601FE0254DE3
:1041D0006D6805F47012234D6D6805F48034022576
:1041E00005EB92421CB9214D554305600BE01D4D76
:1041F0006D6805F400351DB11C4D5543056002E0A6
:10420000194D5543056002E0174D056000BF00BF22
:10421000144D6D6805F0F0010909154D6B5C0568DA
:10422000DD4045600F4D6D6805F4E061090A104DF1
:104230006B5C4568DD4085600A4D6D6805F4605132
:10424000C90A0B4D6B5C4568DD40C560054D6D6866
:1042500005F44041890B074D6B5CC568B5FBF3F570
:10426000056130BD0010024000127A0000093D00D7
:10427000D60E0020E60E002008B501210C20FFF725
:1042800071FF0820ADF8000010208DF80300032016
:104290008DF8020069461348FDF79DFB4FF400407E
:1042A000ADF8000010208DF8030003208DF8020007
:1042B00069460D48FDF78FFB2020ADF800006946E8
:1042C0000848FDF788FB20210648FDF757FC082128
:1042D0000448FDF755FC4FF400410348FDF750FC3E
:1042E00008BD0000000C01400008014000B502229A
:1042F00002490348006800F06BF900BDCE3400208D
:10430000AC0E002001460120704770B505460C46F2
:10431000FFF7ECFF03202070012070BD7047000004
:1043200010B50B490968080EFEF79EFB08480068A7
:10433000C0F30740FEF798FB05480088C0F307204C
:10434000FEF792FB02490878FEF78EFB10BD0000D5
:10435000C00E002010B504462012FEF785FBE0B227
:10436000FEF782FB10BD10B504462046FEF77CFB2D
:1043700010BD10B5EF20FEF777FB0120FEF774FBB0
:1043800010BD10B50446C4F30720FEF76DFBE0B284
:10439000FEF76AFB10BD10B504462046FEF764FB2D
:1043A00010BD10B500F002F810BD00000CB50020E3
:1043B000019000903348006840F480303149086033
:1043C00000BF3048006800F4003000900198401CA5
:1043D0000190009818B90198B0F5A06FF1D1294863
:1043E000006800F4003010B10120009001E00020CE
:1043F00000900098012843D12348006840F0100045
:10440000214908600846006820F00300086008465B
:10441000006840F0020008601A4840681949486086
:104420000846406848600846406840F4806048603C
:104430000846406820F47C1048600846406840F414
:10444000E81048600846006840F08070086000BFCF
:104450000C48006800F000700028F9D00948406856
:1044600020F00300074948600846406840F0020019
:10447000486000BF0348406800F00C000828F9D1EC
:104480000CBD0000001002400020024070470000F8
:1044900010B501234FF47A720D490E4802F0EEFC7C
:1044A000012350220C490D4802F0E8FC01234FF48F
:1044B0007A620B490B4802F0E1FC064802F00EFD5F
:1044C000064802F00BFD074802F008FD10BD000091
:1044D000396D00083C170020416D00084C17002082
:1044E000616E00085C170020042808D14FF0E0211D
:1044F000096941F004014FF0E022116107E04FF03B
:10450000E021096921F004014FF0E02211617047B8
:1045100070470000012080F3138800BF00BF0748E8
:10452000006800F4E06006490843001D0349086084
:10453000BFF34F8F00BF00BFFEE700000CED00E0AF
:104540000000FA0510B51348006840F00100114959
:10455000086008464068104908400E49486008460F
:1045600000680E4908400B4908600846006820F4BE
:10457000802008600846406820F4FE0048604FF440
:104580001F008860FFF70DFF4FF0006004490860CE
:1045900010BD0000001002400000FFF8FFFFF6FE13
:1045A00008ED00E010B501210820FFF7DBFD012137
:1045B0000846FFF7D7FD01210348FDF797FA0121CF
:1045C0000248FDF793FA10BD0004300000023000ED
:1045D00030B503460D480488B3F1006F01D20120C5
:1045E00030BD4FF0006000EB8420984201D20220E1
:1045F000F6E703E018780870491C5B1C101EA2F156
:104600000105AAB2F6D100BFEAE70000E0F7FF1FFC
:104610002DE9F84F8046894616465648B0F800A066
:10462000A8F1006B4FEADB25CBF30A00009000985D
:10463000C0F50067B8F1006F02D20120BDE8F88F25
:104640004FF0006000EB8A20404501D20120F5E7E1
:1046500049484A4948604A484860BE4200DC3746FB
:104660007DE0484802F000FD08B10220E6E74FF087
:10467000006101EBC5200A144349FFF7A9FF414837
:1046800002F0F2FC08B10220D8E73C48006940F093
:1046900002003A4908614FF0006000EBC520486114
:1046A0000846006940F040000861364802F0DCFC32
:1046B00008B10220C2E73148006941F6FD710840A7
:1046C0002E490861002007E019F8002000990144F4
:1046D0002D4B5A54411C88B2B842F5DB00242AE025
:1046E000284802F0C1FC08B10220A7E7234800696E
:1046F00040F0010021490861234810F8140001210D
:1047000001EB4401204A515C40EA01204FF0006176
:1047100001EBC52121F814001A4802F0A5FC08B1EC
:1047200002208BE71548006941F6FE7108401349E5
:104730000861601C84B2B4F5806FD1DBB74200D150
:104740000EE0B9446D1C00200090F01B86B2B6F557
:10475000006F02DD4FF4006000E03046074680E75E
:1047600000BF0648006940F080000449086100204D
:1047700064E70000E0F7FF1F2301674500200240C7
:10478000AB89EFCD888888006C17002010B5012117
:10479000094800F0AFF868B10848008840F40040CC
:1047A000064908800121044800F095F800210248DC
:1047B00000F094F810BD000000040040CA0E002074
:1047C0007FB505460C4601210220FFF7ABFCADF892
:1047D0000850ADF804400020ADF80A00ADF806001E
:1047E00001A90E4800F0A2F8012211460B4800F082
:1047F00092F80121094800F071F81D208DF80000A1
:1048000000208DF8010002208DF8020001208DF8B3
:1048100003006846FEF7A8F97FBD000000040040D1
:1048200010B50121244800F065F8002843D0234842
:104830000068401C2149086002F078FB2048C089CC
:1048400000280CDD1F48006818B901201D4980317F
:1048500008601B48C089401E1949C88107E01948F3
:104860000068012803D100201649803108601348F0
:1048700000681921B0FBF1F201FB120010B9002011
:10488000114908700D4800684FF47A71B0FBF1F2DD
:1048900001FB120058B90020084908600B48007855
:1048A000002804DD09480078401E084908700121ED
:1048B000014800F010F810BD00080040200F002053
:1048C000CC34002014812142240F0020040F00204A
:1048D000CA4302827047CA430282704721B10288EC
:1048E00042F00102028004E002884FF6FE731A4093
:1048F0000280704730B50246002000230024158A4C
:1049000005EA0103958905EA010413B10CB1012000
:1049100000E0002030BD1AB183890B43838102E09F
:1049200083898B438381704781847047002202888A
:104930001D4B98420ED01D4B98420BD0B0F1804FCA
:1049400008D01B4B984205D01A4B984202D01A4B04
:10495000984204D14FF68F731A404B881A43174B75
:10496000984207D0164B984204D04FF6FF431A40A6
:10497000CB881A4302808B8883850B8803850A4B7A
:1049800098420BD0094B984208D00E4B984205D064
:104990000D4B984202D00D4B984201D10B7A038601
:1049A0000123838270470000002C01400034014045
:1049B0000004004000080040000C004000100040CF
:1049C0000014004000400140004401400048014004
:1049D0000146022901D1024800BF00BF7047000014
:1049E0000008004008B501210820FFF7BBFB40206C
:1049F000ADF8000010208DF8030003208DF80200B0
:104A000069460B48FCF7E7FF0948006820F0704052
:104A1000074908600846006840F0405008600020E0
:104A2000044908600449C1F8980100F0D7F808BDAE
:104A3000000C01409C8121420080214210B50024DD
:104A400000F0CCF8634908800846007800F00100C7
:104A500030B16148007800F0010008B90124B2E0EB
:104A60005C48007800F0020030B15B48007800F04C
:104A7000020008B90224A6E05648007800F00400BD
:104A800030B15548007800F0040008B903249AE0DA
:104A90005048007800F0080030B14F48007800F02E
:104AA000080008B90A248EE04A48007800F0100097
:104AB00030B14948007800F0100008B9042482E0C1
:104AC0004448007800F0200030B14348007800F0FE
:104AD000200008B9052476E03E48007800F0400048
:104AE00030B13D48007800F0400008B906246AE083
:104AF0003848007800F0800030B13748007800F086
:104B0000800008B90B245EE03248008800F4807011
:104B100030B13148008800F4807008B9072452E0B1
:104B20002C48008800F4007030B12B48008800F455
:104B3000007008B9082446E02648008800F4806028
:104B400030B12548008800F4806008B909243AE0B3
:104B50002048008800F4006030B11F48008800F44D
:104B6000006008B90C242EE01A48008800F4805038
:104B700030B11948008800F4805008B90D2422E0B3
:104B80001448008800F4005030B11348008800F445
:104B9000005008B90E2416E00E48008800F480404A
:104BA00030B10D48008800F4804008B90F240AE0B5
:104BB0000848008800F4004028B10748008800F445
:104BC000004000B9102403480088034908802046AB
:104BD00010BD0000B60E0020B40E002070B50024F9
:104BE00000252248006820F07040204908600846EF
:104BF000006840F04050086001201D4908606420B2
:104C000001F0B8FA00201B49C1F89C01142001F002
:104C1000B1FA1648006820F0704014490860084650
:104C2000006840F00040086000BF17E00120104914
:104C3000091F0860642001F09DFA00200D49C1F8A9
:104C40009801012001F096FA09488038006801288F
:104C500002D1A040284385B2601CC4B2102CE5DB11
:104C6000022001F061FA284670BD0000000C0140EE
:104C70009C8121420080214210B540F225511D48FF
:104C800000F0E1F910B31B4800F098FAC4B21A48DA
:104C9000008800F40040C8B91748008800F480403C
:104CA00060B10A2C03D000201349088020E012488C
:104CB000008840F400401049088019E00D2C06D10E
:104CC0000D48008840F480400B49088010E00A48F5
:104CD0000088C0F30D0009490C5407480088401CA7
:104CE0000549088008460088C72801DD00200880A3
:104CF00010BD000000380140D40E00208C2200209E
:104D000010B540F225510E4800F09DF9B0B10D48A4
:104D10000088FF2802D900200A4908800848001DA1
:104D20000088C1B2074802880088401C054B1880E3
:104D3000054881542021024800F014F910BD0000FC
:104D400000440040EA0E0020B82B002010B586B0C9
:104D5000044601210420FFF705FA01214804FFF76A
:104D6000E1F918208DF817000420ADF81400032095
:104D70008DF8160005A91D48FCF72DFE04208DF8BE
:104D800017000820ADF8140003208DF8160005A9BF
:104D90001648FCF720FE01940020ADF810000C200E
:104DA000ADF80E000020ADF80C00ADF80A00ADF82B
:104DB000080001A90E4800F095F901210C4800F007
:104DC000DAF8012240F22551094800F066F9262060
:104DD0008DF8000001208DF803008DF801008DF89A
:104DE00002006846FDF7C0FE06B010BD0008014095
:104DF0000044004070B504460D4600260DE014F84E
:104E0000011B074800F0DFF900BF4021044800F013
:104E10000DF90028F9D0701C86B2AE42EFDB70BDF0
:104E20000044004010B540F22551164800F00BF93F
:104E3000F8B1144800F0C2F9C4B21348008800F475
:104E40000040B0B910480088B0F5C87F12DA0021E0
:104E50000E48FFF769FD0C48008818B901210B487E
:104E6000FFF73CFD08490888411C074A11800849A2
:104E70000C5405E00448008840F4004002490880D2
:104E800010BD000000480040CA0E00200004004091
:104E90006C1F002010B586B0044601210820FFF7E2
:104EA00061F901218804FFF73DF92A4800F070F804
:104EB0004FF48060ADF8100003208DF81200182028
:104EC0008DF8130004A92448FCF785FD4FF4006019
:104ED000ADF8100004208DF8130004A91E48FCF75B
:104EE0007AFD00940020ADF80400ADF80600ADF89E
:104EF0000800ADF80C000C20ADF80A006946154812
:104F000000F0F0F80121134800F035F8012240F2DA
:104F10002551104800F0C1F827208DF81400022018
:104F20008DF8150003208DF8160001208DF817006C
:104F300005A8FDF719FE41F61F416320FFF740FC6D
:104F400000200649088000210548FFF7C7FC06B08D
:104F500010BD000000480040000C0140CA0E0020B7
:104F60000004004001F40072B2F5007F00D100BFE0
:104F7000CA430280704721B1828942F40052828183
:104F800004E082894DF6FF731A4082817047000069
:104F900010B504462048844209D101218803FFF757
:104FA000F1F800214FF48040FFF7ECF832E01B48A5
:104FB000844209D101214804FFF7C4F800214FF4CD
:104FC0000030FFF7BFF825E01548844209D10121E0
:104FD0008804FFF7B7F800214FF48020FFF7B2F8FC
:104FE00018E01048844209D10121C804FFF7AAF84B
:104FF00000214FF40020FFF7A5F80BE00A48844297
:1050000008D101210805FFF79DF800214FF4801019
:10501000FFF798F810BD0000003801400044004040
:1050200000480040004C0040005000400246002074
:10503000B1F5007F00D100BF13880B400BB10120F8
:1050400000E00020704770B50246002400230025D0
:10505000002040F66A16B14200D100BFC1F34215EC
:1050600001F01F03012606FA03F3012D02D19689F0
:10507000334006E0022D02D1168A334001E0968AC1
:1050800033400C12012606FA04F41688344013B19A
:105090000CB1012000E0002070BDF0B503460024F3
:1050A00000260025002040F66A17B94200D100BF53
:1050B0001846C1F3421401F01F06012707FA06F54E
:1050C000012C01D10C3004E0022C01D1103000E0A1
:1050D00014301AB107682F43076002E00768AF4336
:1050E0000760F0BD2DE9F04786B005460E46002466
:1050F000A24600BFA1460027B08900B100BF2F46DD
:105100002C8A4CF6FF700440F08804432C82AC8952
:105110004EF6F3100440B088318908437189084382
:105120000443AC81AC8A4FF6FF400440B08904438D
:10513000AC8201A8FFF736F81F48874202D1DDF89C
:1051400010A001E0DDF80CA0A88900F4004040B1F7
:105150000AEBCA0000EB0A1031684900B0FBF1F815
:1051600007E00AEBCA0000EB0A1031688900B0FBC7
:10517000F1F86420B8FBF0F004012009642101FB80
:105180001089A88900F4004040B1322000EBC9002A
:10519000B0FBF1F000F00700044308E0322000EB20
:1051A00009106421B0FBF1F000F00F0004432C81E2
:1051B00006B0BDE8F087000000380140014688884D
:1051C000C0F308007047C1F30802828070470000F6
:1051D00010B50C48007890B10A480078012802D038
:1051E000022808D103E00120FEF7C0FA03E0022004
:1051F000FEF7BCFA00BF00BF002002490870012082
:1052000010BD0000B834002000B58FB0674880782A
:10521000012817D166480089A0B96548C07A88B9C5
:105220006448C07863498978CDE9001061484378C3
:10523000027861A102A800F075F902AA02211C20DF
:10524000FDF732FE5A48C07A01280FDD5EA2022126
:105250002020FDF729FE5648C27A5EA102A800F080
:1052600061F902AA04210020FDF71EFE5048C07A11
:1052700001281FD100205C4908704C498870FDF757
:105280002FFD5AA200211020FDF70EFE5BA2022185
:105290001020FDF709FE5DA204211020FDF704FE99
:1052A0005EA206211020FDF7FFFD03204049087093
:1052B0000020C8723E480089022826D13C48C08898
:1052C0003B494988884203D039488088002869D002
:1052D00056A202212020FDF7E7FD03203449087083
:1052E0000A2088720120088100203049487400BFDC
:1052F00003E000212F4A1154401C4F49097888428D
:10530000F7DB00204C4908704CE02948008901284F
:1053100048D127480078002835DD254880880028B6
:1053200031D1FA202249C88144A202212020FDF770
:10533000BBFD002003E000211E4A1154401C3E49E1
:1053400009788842F7DB00203B49087040F2DC50C6
:1053500000F0EAFE1748C07816498978CDE90010B8
:1053600014484378027814A102A800F0DBF802AADE
:1053700002211C20FDF798FD0D480078401E0C49C5
:1053800008700020C8800A48007858B901200849F0
:1053900048737820C872FDF7A3FC0BA202212020DD
:1053A000FDF782FD01200FB000BD0000B8340020E1
:1053B000CC340020B90E002020256420256420254F
:1053C0006420256420200000BDE2CBF8CAA7B0DC31
:1053D000000000002D2D2D2D2D2020256420202DB6
:1053E0002D2D2D2D00000000120F00204B41BCFC84
:1053F000C3DCC2EBD1E9D6A4000000004B42BCFCE8
:10540000CCEDBCD3D6B8CEC6000000004B43BCFCEC
:10541000C9BEB3FDD6B8CEC6000000004B44BCFCEC
:10542000D1E9D6A4D6B8CEC600000000D1E9D6A4F2
:10543000B3C9B9A600000000B80E0020D1E9D6A477
:10544000CAA7B0DC0000000000BFFEE710B586B0C0
:105450000446012144F20400FEF784FE4FF400707C
:10546000ADF8140003208DF8160018208DF81700F1
:1054700005A91C48FCF7AFFA4FF48060ADF81400A2
:1054800004208DF8170005A91648FCF7A4FA25207A
:105490008DF8000003208DF801008DF80200012036
:1054A0008DF803006846FDF75FFB01940020ADF81E
:1054B0000800ADF80A00ADF80C00ADF810000C20A3
:1054C000ADF80E0001A90848FFF70CFE012240F2DA
:1054D00025510548FFF7E1FD01210348FFF74BFD8A
:1054E00006B010BD000801400038014010B502228E
:1054F000024903480068FFF78BF810BDCE34002046
:10550000AC0E00200FB4054B10B503A9044A029855
:1055100000F050F910BC5DF814FB0000C1610008F8
:10552000D00E00200FB4084B10B504A902AA0398AE
:1055300000F040F9044602A9002000F0BEFC20461D
:1055400010BC5DF814FB0000BB5E0008004870470B
:10555000380F002030B528B1144C031F00202168FB
:105560000A4605E0084630BD9A4203D81046526804
:10557000002AF9D1002800D041680BD00468A3EBC1
:105580000005A54204D11B681C440346046002E0E8
:10559000436000E023603AB11C68D51AA54203D1EC
:1055A00015682C441C6052685A6030BD300F0020D2
:1055B0002DE9F04782460F4C10480D4E0E4F001B50
:1055C0004FF0000820F007054FF0010900221146B6
:1055D000504600F02FFE002802D1306810B10020A4
:1055E000BDE8F0873C60C4E90058C6F80090EDE7DC
:1055F000340F0020E4340020300F0020E040002071
:1056000002E008C8121F08C1002AFAD1704770478B
:10561000002001E001C1121F002AFBD170470000E9
:105620002DE9FF5F82B00021DDE90430020DDDF8D5
:1056300040B0034318D044F61050A2F2FF32424368
:105640001514119801281FD0A5EB0B00401C5FEA30
:10565000000A4FF000064E4FDFF83891B046504632
:1056600015D5CAF1000413E0119801244AA30128BA
:1056700001D16FEA0B010298119AC0E90031C0E92B
:10568000024206B0BDE8F09FCBF10000DFE7044620
:105690000021404A491842EB0450CDE9001012E0C5
:1056A000E00707D032463B4640464946FBF74CF8F8
:1056B0008046894632463B4610461946FBF744F879
:1056C00006460F466410002CEAD1DDE90401DDE94D
:1056D0000023BAF1000F06DAFBF736F842464B46D4
:1056E000FBF732F805E0FBF76CFA42464B46FBF756
:1056F00068FA04460E460022284BFBF7CFF803D881
:105700004FF0FF30014607E00022254B204631468E
:10571000FAF773FFFBF7D0FA102409E0002C0ADB3C
:105720000A220023FBF7E8F8039B30321A55641E67
:1057300050EA0102F2D1641C039AC4F1110314442B
:10574000119A012A03D0012208430DD10AE008432F
:1057500004D000204FF0110B119072E7A3EB0B0562
:105760006D1E0DE05B4504DD4FF0000205F1010503
:1057700004E003DA4FF00002A5F10105002AECD0A5
:1057800002981199C0E90231C0E9004579E70000AB
:10579000000014400000F03F300000000000F04323
:1057A0000000E03F30380A2801D201207047002075
:1057B000704700002DE9FF4F95B09A46884606468F
:1057C0000025EEE1252877D100242746F94A01215A
:1057D000039400E0044316F8013F203B01FA03F074
:1057E0001042F7D130782A2811D06FF02F0330788B
:1057F000A0F13002092A16D8039A44F0020402EB01
:10580000820203EB42021044761C0390EFE758F843
:10581000042B0392002A03DA504244F4005403900C
:1058200044F00204761C30782E2816D116F8010FA9
:1058300044F004042A280DD06FF02F023078A0F134
:105840003003092B09D807EB870302EB4303C71882
:10585000761CF3E758F8047B761C30786C280FD060
:1058600006DC4C2817D068280DD06A2814D104E033
:10587000742810D07A280FD10DE044F400140AE007
:1058800044F4801401E044F440147278824202D15E
:1058900004F58014761C761C307866280BD013DC57
:1058A000582877D009DC002875D04528F6D046283E
:1058B000F4D047281AD193E118E0632835D0642842
:1058C00079D0652812D18BE1702873D008DC672865
:1058D000F1D069286FD06E280DD06F2806D1ACE0CA
:1058E00073282CD0752874D0782853D05246179935
:1058F00090476D1C54E1C4F30250022809D00328DC
:105900000DD0D8F8001004280DD00D6008F104085F
:1059100046E1D8F80010EA17C1E90052F6E7D8F8D6
:1059200000100D80F2E70D70F0E718F8041B8DF8F9
:10593000001000208DF80100EB46012003E058F82C
:1059400004BB4FF0FF3061074FF0000102D40DE0BF
:1059500009F101018946B9420FDA8145F8DB1BF8EC
:1059600009100029F4D108E009F1010189468142BA
:10597000FADB1BF809100029F6D103985346A0EB77
:10598000090721463846179A00F080FA284400EBB0
:10599000090507E044E008E10DE01BF8010B524661
:1059A00017999047B9F10109F7D253462146384675
:1059B000179AF2E039E00A21C4F302524FF0000BCB
:1059C0000091022A06D058F8040BC117032A09D007
:1059D0000AE023E008F1070020F00702F2E80201E4
:1059E000904605E000B2C117042A01D140B2C117A8
:1059F000002906DA0A460021404261EB02012D220D
:105A000002E0220504D52B228DF80420012203E0B8
:105A1000E20701D02022F7E7914657E00A2100E093
:105A200010214FF0000B00910BE010214FF0000B04
:105A300044F004040827009103E008204FF0000B15
:105A40000090C4F30252022A05D058F8040B00213A
:105A5000032A08D008E008F1070020F00702F2E866
:105A60000201904603E080B2042A00D1C0B24FF098
:105A7000000922072AD53278702A07D0DDF800C045
:105A80008CF0100C5CEA0B0C05D00EE040228DF877
:105A90000420012208E050EA010306D030238DF8EB
:105AA00004308DF8052002229146009B83F0080304
:105AB00053EA0B030AD150EA010201D1620705D56E
:105AC00030228DF804204FF001097F1E3278582AC9
:105AD00004D039A20C920CAA02920BE03BA2F9E787
